{
  "_format": "hh-sol-artifact-1",
  "contractName": "NFTMarketPlace",
  "sourceName": "contracts/NFTMarketPlace.sol",
  "abi": [
    {
      "inputs": [],
      "stateMutability": "nonpayable",
      "type": "constructor"
    },
    {
      "anonymous": false,
      "inputs": [
        {
          "indexed": true,
          "internalType": "address",
          "name": "owner",
          "type": "address"
        },
        {
          "indexed": true,
          "internalType": "address",
          "name": "approved",
          "type": "address"
        },
        {
          "indexed": true,
          "internalType": "uint256",
          "name": "tokenId",
          "type": "uint256"
        }
      ],
      "name": "Approval",
      "type": "event"
    },
    {
      "anonymous": false,
      "inputs": [
        {
          "indexed": true,
          "internalType": "address",
          "name": "owner",
          "type": "address"
        },
        {
          "indexed": true,
          "internalType": "address",
          "name": "operator",
          "type": "address"
        },
        {
          "indexed": false,
          "internalType": "bool",
          "name": "approved",
          "type": "bool"
        }
      ],
      "name": "ApprovalForAll",
      "type": "event"
    },
    {
      "anonymous": false,
      "inputs": [
        {
          "indexed": false,
          "internalType": "uint256",
          "name": "_fromTokenId",
          "type": "uint256"
        },
        {
          "indexed": false,
          "internalType": "uint256",
          "name": "_toTokenId",
          "type": "uint256"
        }
      ],
      "name": "BatchMetadataUpdate",
      "type": "event"
    },
    {
      "anonymous": false,
      "inputs": [
        {
          "indexed": true,
          "internalType": "uint256",
          "name": "tokenId",
          "type": "uint256"
        },
        {
          "indexed": false,
          "internalType": "address",
          "name": "seller",
          "type": "address"
        },
        {
          "indexed": false,
          "internalType": "address",
          "name": "owner",
          "type": "address"
        },
        {
          "indexed": false,
          "internalType": "uint256",
          "name": "price",
          "type": "uint256"
        },
        {
          "indexed": false,
          "internalType": "bool",
          "name": "sold",
          "type": "bool"
        }
      ],
      "name": "MarketItemCreated",
      "type": "event"
    },
    {
      "anonymous": false,
      "inputs": [
        {
          "indexed": false,
          "internalType": "uint256",
          "name": "_tokenId",
          "type": "uint256"
        }
      ],
      "name": "MetadataUpdate",
      "type": "event"
    },
    {
      "anonymous": false,
      "inputs": [
        {
          "indexed": true,
          "internalType": "address",
          "name": "from",
          "type": "address"
        },
        {
          "indexed": true,
          "internalType": "address",
          "name": "to",
          "type": "address"
        },
        {
          "indexed": true,
          "internalType": "uint256",
          "name": "tokenId",
          "type": "uint256"
        }
      ],
      "name": "Transfer",
      "type": "event"
    },
    {
      "inputs": [
        {
          "internalType": "address",
          "name": "to",
          "type": "address"
        },
        {
          "internalType": "uint256",
          "name": "tokenId",
          "type": "uint256"
        }
      ],
      "name": "approve",
      "outputs": [],
      "stateMutability": "nonpayable",
      "type": "function"
    },
    {
      "inputs": [
        {
          "internalType": "address",
          "name": "owner",
          "type": "address"
        }
      ],
      "name": "balanceOf",
      "outputs": [
        {
          "internalType": "uint256",
          "name": "",
          "type": "uint256"
        }
      ],
      "stateMutability": "view",
      "type": "function"
    },
    {
      "inputs": [
        {
          "internalType": "uint256",
          "name": "tokenId",
          "type": "uint256"
        }
      ],
      "name": "createMarketSale",
      "outputs": [],
      "stateMutability": "payable",
      "type": "function"
    },
    {
      "inputs": [
        {
          "internalType": "string",
          "name": "tokenURI",
          "type": "string"
        },
        {
          "internalType": "uint256",
          "name": "price",
          "type": "uint256"
        }
      ],
      "name": "createToken",
      "outputs": [
        {
          "internalType": "uint256",
          "name": "",
          "type": "uint256"
        }
      ],
      "stateMutability": "payable",
      "type": "function"
    },
    {
      "inputs": [],
      "name": "fetchItemsListed",
      "outputs": [
        {
          "components": [
            {
              "internalType": "uint256",
              "name": "tokenId",
              "type": "uint256"
            },
            {
              "internalType": "address payable",
              "name": "seller",
              "type": "address"
            },
            {
              "internalType": "address payable",
              "name": "owner",
              "type": "address"
            },
            {
              "internalType": "uint256",
              "name": "price",
              "type": "uint256"
            },
            {
              "internalType": "bool",
              "name": "sold",
              "type": "bool"
            }
          ],
          "internalType": "struct NFTMarketPlace.MarketItem[]",
          "name": "",
          "type": "tuple[]"
        }
      ],
      "stateMutability": "view",
      "type": "function"
    },
    {
      "inputs": [],
      "name": "fetchMarketItems",
      "outputs": [
        {
          "components": [
            {
              "internalType": "uint256",
              "name": "tokenId",
              "type": "uint256"
            },
            {
              "internalType": "address payable",
              "name": "seller",
              "type": "address"
            },
            {
              "internalType": "address payable",
              "name": "owner",
              "type": "address"
            },
            {
              "internalType": "uint256",
              "name": "price",
              "type": "uint256"
            },
            {
              "internalType": "bool",
              "name": "sold",
              "type": "bool"
            }
          ],
          "internalType": "struct NFTMarketPlace.MarketItem[]",
          "name": "",
          "type": "tuple[]"
        }
      ],
      "stateMutability": "view",
      "type": "function"
    },
    {
      "inputs": [],
      "name": "fetchMyNFTs",
      "outputs": [
        {
          "components": [
            {
              "internalType": "uint256",
              "name": "tokenId",
              "type": "uint256"
            },
            {
              "internalType": "address payable",
              "name": "seller",
              "type": "address"
            },
            {
              "internalType": "address payable",
              "name": "owner",
              "type": "address"
            },
            {
              "internalType": "uint256",
              "name": "price",
              "type": "uint256"
            },
            {
              "internalType": "bool",
              "name": "sold",
              "type": "bool"
            }
          ],
          "internalType": "struct NFTMarketPlace.MarketItem[]",
          "name": "",
          "type": "tuple[]"
        }
      ],
      "stateMutability": "view",
      "type": "function"
    },
    {
      "inputs": [
        {
          "internalType": "uint256",
          "name": "tokenId",
          "type": "uint256"
        }
      ],
      "name": "getApproved",
      "outputs": [
        {
          "internalType": "address",
          "name": "",
          "type": "address"
        }
      ],
      "stateMutability": "view",
      "type": "function"
    },
    {
      "inputs": [],
      "name": "getListingPrice",
      "outputs": [
        {
          "internalType": "uint256",
          "name": "",
          "type": "uint256"
        }
      ],
      "stateMutability": "view",
      "type": "function"
    },
    {
      "inputs": [
        {
          "internalType": "address",
          "name": "owner",
          "type": "address"
        },
        {
          "internalType": "address",
          "name": "operator",
          "type": "address"
        }
      ],
      "name": "isApprovedForAll",
      "outputs": [
        {
          "internalType": "bool",
          "name": "",
          "type": "bool"
        }
      ],
      "stateMutability": "view",
      "type": "function"
    },
    {
      "inputs": [],
      "name": "listingPrice",
      "outputs": [
        {
          "internalType": "uint256",
          "name": "",
          "type": "uint256"
        }
      ],
      "stateMutability": "view",
      "type": "function"
    },
    {
      "inputs": [],
      "name": "name",
      "outputs": [
        {
          "internalType": "string",
          "name": "",
          "type": "string"
        }
      ],
      "stateMutability": "view",
      "type": "function"
    },
    {
      "inputs": [],
      "name": "owner",
      "outputs": [
        {
          "internalType": "address payable",
          "name": "",
          "type": "address"
        }
      ],
      "stateMutability": "view",
      "type": "function"
    },
    {
      "inputs": [
        {
          "internalType": "uint256",
          "name": "tokenId",
          "type": "uint256"
        }
      ],
      "name": "ownerOf",
      "outputs": [
        {
          "internalType": "address",
          "name": "",
          "type": "address"
        }
      ],
      "stateMutability": "view",
      "type": "function"
    },
    {
      "inputs": [
        {
          "internalType": "uint256",
          "name": "tokenId",
          "type": "uint256"
        },
        {
          "internalType": "uint256",
          "name": "price",
          "type": "uint256"
        }
      ],
      "name": "resellToken",
      "outputs": [],
      "stateMutability": "payable",
      "type": "function"
    },
    {
      "inputs": [
        {
          "internalType": "address",
          "name": "from",
          "type": "address"
        },
        {
          "internalType": "address",
          "name": "to",
          "type": "address"
        },
        {
          "internalType": "uint256",
          "name": "tokenId",
          "type": "uint256"
        }
      ],
      "name": "safeTransferFrom",
      "outputs": [],
      "stateMutability": "nonpayable",
      "type": "function"
    },
    {
      "inputs": [
        {
          "internalType": "address",
          "name": "from",
          "type": "address"
        },
        {
          "internalType": "address",
          "name": "to",
          "type": "address"
        },
        {
          "internalType": "uint256",
          "name": "tokenId",
          "type": "uint256"
        },
        {
          "internalType": "bytes",
          "name": "data",
          "type": "bytes"
        }
      ],
      "name": "safeTransferFrom",
      "outputs": [],
      "stateMutability": "nonpayable",
      "type": "function"
    },
    {
      "inputs": [
        {
          "internalType": "address",
          "name": "operator",
          "type": "address"
        },
        {
          "internalType": "bool",
          "name": "approved",
          "type": "bool"
        }
      ],
      "name": "setApprovalForAll",
      "outputs": [],
      "stateMutability": "nonpayable",
      "type": "function"
    },
    {
      "inputs": [
        {
          "internalType": "bytes4",
          "name": "interfaceId",
          "type": "bytes4"
        }
      ],
      "name": "supportsInterface",
      "outputs": [
        {
          "internalType": "bool",
          "name": "",
          "type": "bool"
        }
      ],
      "stateMutability": "view",
      "type": "function"
    },
    {
      "inputs": [],
      "name": "symbol",
      "outputs": [
        {
          "internalType": "string",
          "name": "",
          "type": "string"
        }
      ],
      "stateMutability": "view",
      "type": "function"
    },
    {
      "inputs": [
        {
          "internalType": "uint256",
          "name": "tokenId",
          "type": "uint256"
        }
      ],
      "name": "tokenURI",
      "outputs": [
        {
          "internalType": "string",
          "name": "",
          "type": "string"
        }
      ],
      "stateMutability": "view",
      "type": "function"
    },
    {
      "inputs": [
        {
          "internalType": "address",
          "name": "from",
          "type": "address"
        },
        {
          "internalType": "address",
          "name": "to",
          "type": "address"
        },
        {
          "internalType": "uint256",
          "name": "tokenId",
          "type": "uint256"
        }
      ],
      "name": "transferFrom",
      "outputs": [],
      "stateMutability": "nonpayable",
      "type": "function"
    },
    {
      "inputs": [
        {
          "internalType": "uint256",
          "name": "_listingPrice",
          "type": "uint256"
        }
      ],
      "name": "updateListingPrice",
      "outputs": [],
      "stateMutability": "payable",
      "type": "function"
    }
  ],
  "bytecode": "0x60806040526605543df729c0006009553480156200001c57600080fd5b506040518060400160405280600e81526020017f4e46544d61726b6574506c6163650000000000000000000000000000000000008152506040518060400160405280600481526020017f4e46544d0000000000000000000000000000000000000000000000000000000081525081600090816200009a919062000370565b508060019081620000ac919062000370565b50505033600a60006101000a81548173ffffffffffffffffffffffffffffffffffffffff021916908373ffffffffffffffffffffffffffffffffffffffff16021790555062000457565b600081519050919050565b7f4e487b7100000000000000000000000000000000000000000000000000000000600052604160045260246000fd5b7f4e487b7100000000000000000000000000000000000000000000000000000000600052602260045260246000fd5b600060028204905060018216806200017857607f821691505b6020821081036200018e576200018d62000130565b5b50919050565b60008190508160005260206000209050919050565b60006020601f8301049050919050565b600082821b905092915050565b600060088302620001f87fffffffffffffffffffffffffffffffffffffffffffffffffffffffffffffffff82620001b9565b620002048683620001b9565b95508019841693508086168417925050509392505050565b6000819050919050565b6000819050919050565b6000620002516200024b62000245846200021c565b62000226565b6200021c565b9050919050565b6000819050919050565b6200026d8362000230565b620002856200027c8262000258565b848454620001c6565b825550505050565b600090565b6200029c6200028d565b620002a981848462000262565b505050565b5b81811015620002d157620002c560008262000292565b600181019050620002af565b5050565b601f8211156200032057620002ea8162000194565b620002f584620001a9565b8101602085101562000305578190505b6200031d6200031485620001a9565b830182620002ae565b50505b505050565b600082821c905092915050565b6000620003456000198460080262000325565b1980831691505092915050565b600062000360838362000332565b9150826002028217905092915050565b6200037b82620000f6565b67ffffffffffffffff81111562000397576200039662000101565b5b620003a382546200015f565b620003b0828285620002d5565b600060209050601f831160018114620003e85760008415620003d3578287015190505b620003df858262000352565b8655506200044f565b601f198416620003f88662000194565b60005b828110156200042257848901518255600182019150602085019450602081019050620003fb565b868310156200044257848901516200043e601f89168262000332565b8355505b6001600288020188555050505b505050505050565b6142e580620004676000396000f3fe6080604052600436106101405760003560e01c806370a08231116100b6578063b88d4fde1161006f578063b88d4fde14610456578063be9af5361461047f578063c78f19f91461049b578063c87b56dd146104c6578063e219fc7514610503578063e985e9c51461051f57610140565b806370a082311461034e57806372b3b6201461038b5780638da5cb5b146103bb57806395d89b41146103e6578063a22cb46514610411578063ae677aa31461043a57610140565b806312e855851161010857806312e855851461023e578063202e37401461026957806323b872dd1461029457806342842e0e146102bd57806345f8fa80146102e65780636352211e1461031157610140565b806301ffc9a71461014557806306fdde0314610182578063081812fc146101ad578063095ea7b3146101ea5780630f08efe014610213575b600080fd5b34801561015157600080fd5b5061016c60048036038101906101679190612bcb565b61055c565b6040516101799190612c13565b60405180910390f35b34801561018e57600080fd5b506101976105bd565b6040516101a49190612cbe565b60405180910390f35b3480156101b957600080fd5b506101d460048036038101906101cf9190612d16565b61064f565b6040516101e19190612d84565b60405180910390f35b3480156101f657600080fd5b50610211600480360381019061020c9190612dcb565b610695565b005b34801561021f57600080fd5b506102286107ac565b6040516102359190612f61565b60405180910390f35b34801561024a57600080fd5b506102536109f3565b6040516102609190612f92565b60405180910390f35b34801561027557600080fd5b5061027e6109fd565b60405161028b9190612f61565b60405180910390f35b3480156102a057600080fd5b506102bb60048036038101906102b69190612fad565b610cc5565b005b3480156102c957600080fd5b506102e460048036038101906102df9190612fad565b610d25565b005b3480156102f257600080fd5b506102fb610d45565b6040516103089190612f61565b60405180910390f35b34801561031d57600080fd5b5061033860048036038101906103339190612d16565b61100d565b6040516103459190612d84565b60405180910390f35b34801561035a57600080fd5b5061037560048036038101906103709190613000565b611093565b6040516103829190612f92565b60405180910390f35b6103a560048036038101906103a09190613162565b61114a565b6040516103b29190612f92565b60405180910390f35b3480156103c757600080fd5b506103d061118c565b6040516103dd91906131cd565b60405180910390f35b3480156103f257600080fd5b506103fb6111b2565b6040516104089190612cbe565b60405180910390f35b34801561041d57600080fd5b5061043860048036038101906104339190613214565b611244565b005b610454600480360381019061044f9190612d16565b61125a565b005b34801561046257600080fd5b5061047d600480360381019061047891906132f5565b6112f4565b005b61049960048036038101906104949190612d16565b611356565b005b3480156104a757600080fd5b506104b061159b565b6040516104bd9190612f92565b60405180910390f35b3480156104d257600080fd5b506104ed60048036038101906104e89190612d16565b6115a1565b6040516104fa9190612cbe565b60405180910390f35b61051d60048036038101906105189190613378565b6116b3565b005b34801561052b57600080fd5b50610546600480360381019061054191906133b8565b6118a8565b6040516105539190612c13565b60405180910390f35b6000634906490660e01b7bffffffffffffffffffffffffffffffffffffffffffffffffffffffff1916827bffffffffffffffffffffffffffffffffffffffffffffffffffffffff191614806105b657506105b58261193c565b5b9050919050565b6060600080546105cc90613427565b80601f01602080910402602001604051908101604052809291908181526020018280546105f890613427565b80156106455780601f1061061a57610100808354040283529160200191610645565b820191906000526020600020905b81548152906001019060200180831161062857829003601f168201915b5050505050905090565b600061065a82611a1e565b6004600083815260200190815260200160002060009054906101000a900473ffffffffffffffffffffffffffffffffffffffff169050919050565b60006106a08261100d565b90508073ffffffffffffffffffffffffffffffffffffffff168373ffffffffffffffffffffffffffffffffffffffff1603610710576040517f08c379a0000000000000000000000000000000000000000000000000000000008152600401610707906134ca565b60405180910390fd5b8073ffffffffffffffffffffffffffffffffffffffff1661072f611a69565b73ffffffffffffffffffffffffffffffffffffffff16148061075e575061075d81610758611a69565b6118a8565b5b61079d576040517f08c379a00000000000000000000000000000000000000000000000000000000081526004016107949061355c565b60405180910390fd5b6107a78383611a71565b505050565b606060006107ba6008611b2a565b6107c46007611b2a565b6107ce91906135ab565b905060008167ffffffffffffffff8111156107ec576107eb613037565b5b60405190808252806020026020018201604052801561082557816020015b610812612b02565b81526020019060019003908161080a5790505b509050600080600190505b61083a6007611b2a565b81116109e9573073ffffffffffffffffffffffffffffffffffffffff16600b600083815260200190815260200160002060020160009054906101000a900473ffffffffffffffffffffffffffffffffffffffff1673ffffffffffffffffffffffffffffffffffffffff16036109d6576000600b60008381526020019081526020016000209050806040518060a0016040529081600082015481526020016001820160009054906101000a900473ffffffffffffffffffffffffffffffffffffffff1673ffffffffffffffffffffffffffffffffffffffff1673ffffffffffffffffffffffffffffffffffffffff1681526020016002820160009054906101000a900473ffffffffffffffffffffffffffffffffffffffff1673ffffffffffffffffffffffffffffffffffffffff1673ffffffffffffffffffffffffffffffffffffffff168152602001600382015481526020016004820160009054906101000a900460ff1615151515815250508484815181106109ba576109b96135df565b5b60200260200101819052506001836109d2919061360e565b9250505b80806109e190613642565b915050610830565b5081935050505090565b6000600954905090565b60606000610a0b6007611b2a565b90506000806000600190505b838111610aaa573373ffffffffffffffffffffffffffffffffffffffff16600b600083815260200190815260200160002060020160009054906101000a900473ffffffffffffffffffffffffffffffffffffffff1673ffffffffffffffffffffffffffffffffffffffff1603610a9757600183610a94919061360e565b92505b8080610aa290613642565b915050610a17565b5060008267ffffffffffffffff811115610ac757610ac6613037565b5b604051908082528060200260200182016040528015610b0057816020015b610aed612b02565b815260200190600190039081610ae55790505b5090506000600190505b848111610cba573373ffffffffffffffffffffffffffffffffffffffff16600b600083815260200190815260200160002060020160009054906101000a900473ffffffffffffffffffffffffffffffffffffffff1673ffffffffffffffffffffffffffffffffffffffff1603610ca7576000600b60008381526020019081526020016000209050806040518060a0016040529081600082015481526020016001820160009054906101000a900473ffffffffffffffffffffffffffffffffffffffff1673ffffffffffffffffffffffffffffffffffffffff1673ffffffffffffffffffffffffffffffffffffffff1681526020016002820160009054906101000a900473ffffffffffffffffffffffffffffffffffffffff1673ffffffffffffffffffffffffffffffffffffffff1673ffffffffffffffffffffffffffffffffffffffff168152602001600382015481526020016004820160009054906101000a900460ff161515151581525050838581518110610c8b57610c8a6135df565b5b6020026020010181905250600184610ca3919061360e565b9350505b8080610cb290613642565b915050610b0a565b508094505050505090565b610cd6610cd0611a69565b82611b38565b610d15576040517f08c379a0000000000000000000000000000000000000000000000000000000008152600401610d0c906136fc565b60405180910390fd5b610d20838383611bcd565b505050565b610d40838383604051806020016040528060008152506112f4565b505050565b60606000610d536007611b2a565b90506000806000600190505b838111610df2573373ffffffffffffffffffffffffffffffffffffffff16600b600083815260200190815260200160002060010160009054906101000a900473ffffffffffffffffffffffffffffffffffffffff1673ffffffffffffffffffffffffffffffffffffffff1603610ddf57600183610ddc919061360e565b92505b8080610dea90613642565b915050610d5f565b5060008267ffffffffffffffff811115610e0f57610e0e613037565b5b604051908082528060200260200182016040528015610e4857816020015b610e35612b02565b815260200190600190039081610e2d5790505b5090506000600190505b848111611002573373ffffffffffffffffffffffffffffffffffffffff16600b600083815260200190815260200160002060010160009054906101000a900473ffffffffffffffffffffffffffffffffffffffff1673ffffffffffffffffffffffffffffffffffffffff1603610fef576000600b60008381526020019081526020016000209050806040518060a0016040529081600082015481526020016001820160009054906101000a900473ffffffffffffffffffffffffffffffffffffffff1673ffffffffffffffffffffffffffffffffffffffff1673ffffffffffffffffffffffffffffffffffffffff1681526020016002820160009054906101000a900473ffffffffffffffffffffffffffffffffffffffff1673ffffffffffffffffffffffffffffffffffffffff1673ffffffffffffffffffffffffffffffffffffffff168152602001600382015481526020016004820160009054906101000a900460ff161515151581525050838581518110610fd357610fd26135df565b5b6020026020010181905250600184610feb919061360e565b9350505b8080610ffa90613642565b915050610e52565b508094505050505090565b60008061101983611ec6565b9050600073ffffffffffffffffffffffffffffffffffffffff168173ffffffffffffffffffffffffffffffffffffffff160361108a576040517f08c379a000000000000000000000000000000000000000000000000000000000815260040161108190613768565b60405180910390fd5b80915050919050565b60008073ffffffffffffffffffffffffffffffffffffffff168273ffffffffffffffffffffffffffffffffffffffff1603611103576040517f08c379a00000000000000000000000000000000000000000000000000000000081526004016110fa906137fa565b60405180910390fd5b600360008373ffffffffffffffffffffffffffffffffffffffff1673ffffffffffffffffffffffffffffffffffffffff168152602001908152602001600020549050919050565b60006111566007611f03565b60006111626007611b2a565b905061116e3382611f19565b6111788185612136565b61118281846121da565b8091505092915050565b600a60009054906101000a900473ffffffffffffffffffffffffffffffffffffffff1681565b6060600180546111c190613427565b80601f01602080910402602001604051908101604052809291908181526020018280546111ed90613427565b801561123a5780601f1061120f5761010080835404028352916020019161123a565b820191906000526020600020905b81548152906001019060200180831161121d57829003601f168201915b5050505050905090565b61125661124f611a69565b83836123dd565b5050565b600a60009054906101000a900473ffffffffffffffffffffffffffffffffffffffff1673ffffffffffffffffffffffffffffffffffffffff163373ffffffffffffffffffffffffffffffffffffffff16146112ea576040517f08c379a00000000000000000000000000000000000000000000000000000000081526004016112e19061388c565b60405180910390fd5b8060098190555050565b6113056112ff611a69565b83611b38565b611344576040517f08c379a000000000000000000000000000000000000000000000000000000000815260040161133b906136fc565b60405180910390fd5b61135084848484612549565b50505050565b6000600b60008381526020019081526020016000206003015490508034146113b3576040517f08c379a00000000000000000000000000000000000000000000000000000000081526004016113aa906138f8565b60405180910390fd5b33600b600084815260200190815260200160002060020160006101000a81548173ffffffffffffffffffffffffffffffffffffffff021916908373ffffffffffffffffffffffffffffffffffffffff1602179055506001600b600084815260200190815260200160002060040160006101000a81548160ff0219169083151502179055506000600b600084815260200190815260200160002060020160006101000a81548173ffffffffffffffffffffffffffffffffffffffff021916908373ffffffffffffffffffffffffffffffffffffffff1602179055506114976008611f03565b6114a2303384611bcd565b600a60009054906101000a900473ffffffffffffffffffffffffffffffffffffffff1673ffffffffffffffffffffffffffffffffffffffff166108fc6009549081150290604051600060405180830381858888f1935050505015801561150c573d6000803e3d6000fd5b50600b600083815260200190815260200160002060010160009054906101000a900473ffffffffffffffffffffffffffffffffffffffff1673ffffffffffffffffffffffffffffffffffffffff166108fc6009543461156b91906135ab565b9081150290604051600060405180830381858888f19350505050158015611596573d6000803e3d6000fd5b505050565b60095481565b60606115ac82611a1e565b60006006600084815260200190815260200160002080546115cc90613427565b80601f01602080910402602001604051908101604052809291908181526020018280546115f890613427565b80156116455780601f1061161a57610100808354040283529160200191611645565b820191906000526020600020905b81548152906001019060200180831161162857829003601f168201915b5050505050905060006116566125a5565b9050600081510361166b5781925050506116ae565b6000825111156116a0578082604051602001611688929190613954565b604051602081830303815290604052925050506116ae565b6116a9846125bc565b925050505b919050565b3373ffffffffffffffffffffffffffffffffffffffff16600b600084815260200190815260200160002060020160009054906101000a900473ffffffffffffffffffffffffffffffffffffffff1673ffffffffffffffffffffffffffffffffffffffff1614611757576040517f08c379a000000000000000000000000000000000000000000000000000000000815260040161174e906139c4565b60405180910390fd5b600954341461179b576040517f08c379a000000000000000000000000000000000000000000000000000000000815260040161179290613a56565b60405180910390fd5b6000600b600084815260200190815260200160002060040160006101000a81548160ff02191690831515021790555080600b60008481526020019081526020016000206003018190555033600b600084815260200190815260200160002060010160006101000a81548173ffffffffffffffffffffffffffffffffffffffff021916908373ffffffffffffffffffffffffffffffffffffffff16021790555030600b600084815260200190815260200160002060020160006101000a81548173ffffffffffffffffffffffffffffffffffffffff021916908373ffffffffffffffffffffffffffffffffffffffff1602179055506118996008612624565b6118a4333084611bcd565b5050565b6000600560008473ffffffffffffffffffffffffffffffffffffffff1673ffffffffffffffffffffffffffffffffffffffff16815260200190815260200160002060008373ffffffffffffffffffffffffffffffffffffffff1673ffffffffffffffffffffffffffffffffffffffff16815260200190815260200160002060009054906101000a900460ff16905092915050565b60007f80ac58cd000000000000000000000000000000000000000000000000000000007bffffffffffffffffffffffffffffffffffffffffffffffffffffffff1916827bffffffffffffffffffffffffffffffffffffffffffffffffffffffff19161480611a0757507f5b5e139f000000000000000000000000000000000000000000000000000000007bffffffffffffffffffffffffffffffffffffffffffffffffffffffff1916827bffffffffffffffffffffffffffffffffffffffffffffffffffffffff1916145b80611a175750611a1682612680565b5b9050919050565b611a27816126ea565b611a66576040517f08c379a0000000000000000000000000000000000000000000000000000000008152600401611a5d90613768565b60405180910390fd5b50565b600033905090565b816004600083815260200190815260200160002060006101000a81548173ffffffffffffffffffffffffffffffffffffffff021916908373ffffffffffffffffffffffffffffffffffffffff160217905550808273ffffffffffffffffffffffffffffffffffffffff16611ae48361100d565b73ffffffffffffffffffffffffffffffffffffffff167f8c5be1e5ebec7d5bd14f71427d1e84f3dd0314c0f7b2291e5b200ac8c7c3b92560405160405180910390a45050565b600081600001549050919050565b600080611b448361100d565b90508073ffffffffffffffffffffffffffffffffffffffff168473ffffffffffffffffffffffffffffffffffffffff161480611b865750611b8581856118a8565b5b80611bc457508373ffffffffffffffffffffffffffffffffffffffff16611bac8461064f565b73ffffffffffffffffffffffffffffffffffffffff16145b91505092915050565b8273ffffffffffffffffffffffffffffffffffffffff16611bed8261100d565b73ffffffffffffffffffffffffffffffffffffffff1614611c43576040517f08c379a0000000000000000000000000000000000000000000000000000000008152600401611c3a90613ae8565b60405180910390fd5b600073ffffffffffffffffffffffffffffffffffffffff168273ffffffffffffffffffffffffffffffffffffffff1603611cb2576040517f08c379a0000000000000000000000000000000000000000000000000000000008152600401611ca990613b7a565b60405180910390fd5b611cbf838383600161272b565b8273ffffffffffffffffffffffffffffffffffffffff16611cdf8261100d565b73ffffffffffffffffffffffffffffffffffffffff1614611d35576040517f08c379a0000000000000000000000000000000000000000000000000000000008152600401611d2c90613ae8565b60405180910390fd5b6004600082815260200190815260200160002060006101000a81549073ffffffffffffffffffffffffffffffffffffffff02191690556001600360008573ffffffffffffffffffffffffffffffffffffffff1673ffffffffffffffffffffffffffffffffffffffff168152602001908152602001600020600082825403925050819055506001600360008473ffffffffffffffffffffffffffffffffffffffff1673ffffffffffffffffffffffffffffffffffffffff16815260200190815260200160002060008282540192505081905550816002600083815260200190815260200160002060006101000a81548173ffffffffffffffffffffffffffffffffffffffff021916908373ffffffffffffffffffffffffffffffffffffffff160217905550808273ffffffffffffffffffffffffffffffffffffffff168473ffffffffffffffffffffffffffffffffffffffff167fddf252ad1be2c89b69c2b068fc378daa952ba7f163c4a11628f55a4df523b3ef60405160405180910390a4611ec18383836001612731565b505050565b60006002600083815260200190815260200160002060009054906101000a900473ffffffffffffffffffffffffffffffffffffffff169050919050565b6001816000016000828254019250508190555050565b600073ffffffffffffffffffffffffffffffffffffffff168273ffffffffffffffffffffffffffffffffffffffff1603611f88576040517f08c379a0000000000000000000000000000000000000000000000000000000008152600401611f7f90613be6565b60405180910390fd5b611f91816126ea565b15611fd1576040517f08c379a0000000000000000000000000000000000000000000000000000000008152600401611fc890613c52565b60405180910390fd5b611fdf60008383600161272b565b611fe8816126ea565b15612028576040517f08c379a000000000000000000000000000000000000000000000000000000000815260040161201f90613c52565b60405180910390fd5b6001600360008473ffffffffffffffffffffffffffffffffffffffff1673ffffffffffffffffffffffffffffffffffffffff16815260200190815260200160002060008282540192505081905550816002600083815260200190815260200160002060006101000a81548173ffffffffffffffffffffffffffffffffffffffff021916908373ffffffffffffffffffffffffffffffffffffffff160217905550808273ffffffffffffffffffffffffffffffffffffffff16600073ffffffffffffffffffffffffffffffffffffffff167fddf252ad1be2c89b69c2b068fc378daa952ba7f163c4a11628f55a4df523b3ef60405160405180910390a4612132600083836001612731565b5050565b61213f826126ea565b61217e576040517f08c379a000000000000000000000000000000000000000000000000000000000815260040161217590613ce4565b60405180910390fd5b8060066000848152602001908152602001600020908161219e9190613eb0565b507ff8e1a15aba9398e019f0b49df1a4fde98ee17ae345cb5f6b5e2c27f5033e8ce7826040516121ce9190612f92565b60405180910390a15050565b6000811161221d576040517f08c379a000000000000000000000000000000000000000000000000000000000815260040161221490613fce565b60405180910390fd5b6009543414612261576040517f08c379a000000000000000000000000000000000000000000000000000000000815260040161225890613a56565b60405180910390fd5b6040518060a001604052808381526020013373ffffffffffffffffffffffffffffffffffffffff1681526020013073ffffffffffffffffffffffffffffffffffffffff16815260200182815260200160001515815250600b60008481526020019081526020016000206000820151816000015560208201518160010160006101000a81548173ffffffffffffffffffffffffffffffffffffffff021916908373ffffffffffffffffffffffffffffffffffffffff16021790555060408201518160020160006101000a81548173ffffffffffffffffffffffffffffffffffffffff021916908373ffffffffffffffffffffffffffffffffffffffff1602179055506060820151816003015560808201518160040160006101000a81548160ff02191690831515021790555090505061239a333084611bcd565b817fb640004f1d14576d0c209e240cad0410e0d8c0c33a09375861fbadae2588a98d33308460006040516123d19493929190613fee565b60405180910390a25050565b8173ffffffffffffffffffffffffffffffffffffffff168373ffffffffffffffffffffffffffffffffffffffff160361244b576040517f08c379a00000000000000000000000000000000000000000000000000000000081526004016124429061407f565b60405180910390fd5b80600560008573ffffffffffffffffffffffffffffffffffffffff1673ffffffffffffffffffffffffffffffffffffffff16815260200190815260200160002060008473ffffffffffffffffffffffffffffffffffffffff1673ffffffffffffffffffffffffffffffffffffffff16815260200190815260200160002060006101000a81548160ff0219169083151502179055508173ffffffffffffffffffffffffffffffffffffffff168373ffffffffffffffffffffffffffffffffffffffff167f17307eab39ab6107e8899845ad3d59bd9653f200f220920489ca2b5937696c318360405161253c9190612c13565b60405180910390a3505050565b612554848484611bcd565b61256084848484612737565b61259f576040517f08c379a000000000000000000000000000000000000000000000000000000000815260040161259690614111565b60405180910390fd5b50505050565b606060405180602001604052806000815250905090565b60606125c782611a1e565b60006125d16125a5565b905060008151116125f1576040518060200160405280600081525061261c565b806125fb846128be565b60405160200161260c929190613954565b6040516020818303038152906040525b915050919050565b60008160000154905060008111612670576040517f08c379a00000000000000000000000000000000000000000000000000000000081526004016126679061417d565b60405180910390fd5b6001810382600001819055505050565b60007f01ffc9a7000000000000000000000000000000000000000000000000000000007bffffffffffffffffffffffffffffffffffffffffffffffffffffffff1916827bffffffffffffffffffffffffffffffffffffffffffffffffffffffff1916149050919050565b60008073ffffffffffffffffffffffffffffffffffffffff1661270c83611ec6565b73ffffffffffffffffffffffffffffffffffffffff1614159050919050565b50505050565b50505050565b60006127588473ffffffffffffffffffffffffffffffffffffffff1661298c565b156128b1578373ffffffffffffffffffffffffffffffffffffffff1663150b7a02612781611a69565b8786866040518563ffffffff1660e01b81526004016127a394939291906141f2565b6020604051808303816000875af19250505080156127df57506040513d601f19601f820116820180604052508101906127dc9190614253565b60015b612861573d806000811461280f576040519150601f19603f3d011682016040523d82523d6000602084013e612814565b606091505b506000815103612859576040517f08c379a000000000000000000000000000000000000000000000000000000000815260040161285090614111565b60405180910390fd5b805181602001fd5b63150b7a0260e01b7bffffffffffffffffffffffffffffffffffffffffffffffffffffffff1916817bffffffffffffffffffffffffffffffffffffffffffffffffffffffff1916149150506128b6565b600190505b949350505050565b6060600060016128cd846129af565b01905060008167ffffffffffffffff8111156128ec576128eb613037565b5b6040519080825280601f01601f19166020018201604052801561291e5781602001600182028036833780820191505090505b509050600082602001820190505b600115612981578080600190039150507f3031323334353637383961626364656600000000000000000000000000000000600a86061a8153600a858161297557612974614280565b5b0494506000850361292c575b819350505050919050565b6000808273ffffffffffffffffffffffffffffffffffffffff163b119050919050565b600080600090507a184f03e93ff9f4daa797ed6e38ed64bf6a1f0100000000000000008310612a0d577a184f03e93ff9f4daa797ed6e38ed64bf6a1f0100000000000000008381612a0357612a02614280565b5b0492506040810190505b6d04ee2d6d415b85acef81000000008310612a4a576d04ee2d6d415b85acef81000000008381612a4057612a3f614280565b5b0492506020810190505b662386f26fc100008310612a7957662386f26fc100008381612a6f57612a6e614280565b5b0492506010810190505b6305f5e1008310612aa2576305f5e1008381612a9857612a97614280565b5b0492506008810190505b6127108310612ac7576127108381612abd57612abc614280565b5b0492506004810190505b60648310612aea5760648381612ae057612adf614280565b5b0492506002810190505b600a8310612af9576001810190505b80915050919050565b6040518060a0016040528060008152602001600073ffffffffffffffffffffffffffffffffffffffff168152602001600073ffffffffffffffffffffffffffffffffffffffff168152602001600081526020016000151581525090565b6000604051905090565b600080fd5b600080fd5b60007fffffffff0000000000000000000000000000000000000000000000000000000082169050919050565b612ba881612b73565b8114612bb357600080fd5b50565b600081359050612bc581612b9f565b92915050565b600060208284031215612be157612be0612b69565b5b6000612bef84828501612bb6565b91505092915050565b60008115159050919050565b612c0d81612bf8565b82525050565b6000602082019050612c286000830184612c04565b92915050565b600081519050919050565b600082825260208201905092915050565b60005b83811015612c68578082015181840152602081019050612c4d565b60008484015250505050565b6000601f19601f8301169050919050565b6000612c9082612c2e565b612c9a8185612c39565b9350612caa818560208601612c4a565b612cb381612c74565b840191505092915050565b60006020820190508181036000830152612cd88184612c85565b905092915050565b6000819050919050565b612cf381612ce0565b8114612cfe57600080fd5b50565b600081359050612d1081612cea565b92915050565b600060208284031215612d2c57612d2b612b69565b5b6000612d3a84828501612d01565b91505092915050565b600073ffffffffffffffffffffffffffffffffffffffff82169050919050565b6000612d6e82612d43565b9050919050565b612d7e81612d63565b82525050565b6000602082019050612d996000830184612d75565b92915050565b612da881612d63565b8114612db357600080fd5b50565b600081359050612dc581612d9f565b92915050565b60008060408385031215612de257612de1612b69565b5b6000612df085828601612db6565b9250506020612e0185828601612d01565b9150509250929050565b600081519050919050565b600082825260208201905092915050565b6000819050602082019050919050565b612e4081612ce0565b82525050565b6000612e5182612d43565b9050919050565b612e6181612e46565b82525050565b612e7081612bf8565b82525050565b60a082016000820151612e8c6000850182612e37565b506020820151612e9f6020850182612e58565b506040820151612eb26040850182612e58565b506060820151612ec56060850182612e37565b506080820151612ed86080850182612e67565b50505050565b6000612eea8383612e76565b60a08301905092915050565b6000602082019050919050565b6000612f0e82612e0b565b612f188185612e16565b9350612f2383612e27565b8060005b83811015612f54578151612f3b8882612ede565b9750612f4683612ef6565b925050600181019050612f27565b5085935050505092915050565b60006020820190508181036000830152612f7b8184612f03565b905092915050565b612f8c81612ce0565b82525050565b6000602082019050612fa76000830184612f83565b92915050565b600080600060608486031215612fc657612fc5612b69565b5b6000612fd486828701612db6565b9350506020612fe586828701612db6565b9250506040612ff686828701612d01565b9150509250925092565b60006020828403121561301657613015612b69565b5b600061302484828501612db6565b91505092915050565b600080fd5b600080fd5b7f4e487b7100000000000000000000000000000000000000000000000000000000600052604160045260246000fd5b61306f82612c74565b810181811067ffffffffffffffff8211171561308e5761308d613037565b5b80604052505050565b60006130a1612b5f565b90506130ad8282613066565b919050565b600067ffffffffffffffff8211156130cd576130cc613037565b5b6130d682612c74565b9050602081019050919050565b82818337600083830152505050565b6000613105613100846130b2565b613097565b90508281526020810184848401111561312157613120613032565b5b61312c8482856130e3565b509392505050565b600082601f8301126131495761314861302d565b5b81356131598482602086016130f2565b91505092915050565b6000806040838503121561317957613178612b69565b5b600083013567ffffffffffffffff81111561319757613196612b6e565b5b6131a385828601613134565b92505060206131b485828601612d01565b9150509250929050565b6131c781612e46565b82525050565b60006020820190506131e260008301846131be565b92915050565b6131f181612bf8565b81146131fc57600080fd5b50565b60008135905061320e816131e8565b92915050565b6000806040838503121561322b5761322a612b69565b5b600061323985828601612db6565b925050602061324a858286016131ff565b9150509250929050565b600067ffffffffffffffff82111561326f5761326e613037565b5b61327882612c74565b9050602081019050919050565b600061329861329384613254565b613097565b9050828152602081018484840111156132b4576132b3613032565b5b6132bf8482856130e3565b509392505050565b600082601f8301126132dc576132db61302d565b5b81356132ec848260208601613285565b91505092915050565b6000806000806080858703121561330f5761330e612b69565b5b600061331d87828801612db6565b945050602061332e87828801612db6565b935050604061333f87828801612d01565b925050606085013567ffffffffffffffff8111156133605761335f612b6e565b5b61336c878288016132c7565b91505092959194509250565b6000806040838503121561338f5761338e612b69565b5b600061339d85828601612d01565b92505060206133ae85828601612d01565b9150509250929050565b600080604083850312156133cf576133ce612b69565b5b60006133dd85828601612db6565b92505060206133ee85828601612db6565b9150509250929050565b7f4e487b7100000000000000000000000000000000000000000000000000000000600052602260045260246000fd5b6000600282049050600182168061343f57607f821691505b602082108103613452576134516133f8565b5b50919050565b7f4552433732313a20617070726f76616c20746f2063757272656e74206f776e6560008201527f7200000000000000000000000000000000000000000000000000000000000000602082015250565b60006134b4602183612c39565b91506134bf82613458565b604082019050919050565b600060208201905081810360008301526134e3816134a7565b9050919050565b7f4552433732313a20617070726f76652063616c6c6572206973206e6f7420746f60008201527f6b656e206f776e6572206f7220617070726f76656420666f7220616c6c000000602082015250565b6000613546603d83612c39565b9150613551826134ea565b604082019050919050565b6000602082019050818103600083015261357581613539565b9050919050565b7f4e487b7100000000000000000000000000000000000000000000000000000000600052601160045260246000fd5b60006135b682612ce0565b91506135c183612ce0565b92508282039050818111156135d9576135d861357c565b5b92915050565b7f4e487b7100000000000000000000000000000000000000000000000000000000600052603260045260246000fd5b600061361982612ce0565b915061362483612ce0565b925082820190508082111561363c5761363b61357c565b5b92915050565b600061364d82612ce0565b91507fffffffffffffffffffffffffffffffffffffffffffffffffffffffffffffffff820361367f5761367e61357c565b5b600182019050919050565b7f4552433732313a2063616c6c6572206973206e6f7420746f6b656e206f776e6560008201527f72206f7220617070726f76656400000000000000000000000000000000000000602082015250565b60006136e6602d83612c39565b91506136f18261368a565b604082019050919050565b60006020820190508181036000830152613715816136d9565b9050919050565b7f4552433732313a20696e76616c696420746f6b656e2049440000000000000000600082015250565b6000613752601883612c39565b915061375d8261371c565b602082019050919050565b6000602082019050818103600083015261378181613745565b9050919050565b7f4552433732313a2061646472657373207a65726f206973206e6f74206120766160008201527f6c6964206f776e65720000000000000000000000000000000000000000000000602082015250565b60006137e4602983612c39565b91506137ef82613788565b604082019050919050565b60006020820190508181036000830152613813816137d7565b9050919050565b7f4f6e6c7920746865206d61726b6574706c616365206f776e65722063616e206360008201527f68616e676520746865206c697374696e67207072696365000000000000000000602082015250565b6000613876603783612c39565b91506138818261381a565b604082019050919050565b600060208201905081810360008301526138a581613869565b9050919050565b7f506c656173652073656e642074686520636f727265637420616d6f756e740000600082015250565b60006138e2601e83612c39565b91506138ed826138ac565b602082019050919050565b60006020820190508181036000830152613911816138d5565b9050919050565b600081905092915050565b600061392e82612c2e565b6139388185613918565b9350613948818560208601612c4a565b80840191505092915050565b60006139608285613923565b915061396c8284613923565b91508190509392505050565b7f4f6e6c7920746865206f776e65722063616e20726573656c6c00000000000000600082015250565b60006139ae601983612c39565b91506139b982613978565b602082019050919050565b600060208201905081810360008301526139dd816139a1565b9050919050565b7f5072696365206d75737420626520657175616c20746f206c697374696e67207060008201527f7269636500000000000000000000000000000000000000000000000000000000602082015250565b6000613a40602483612c39565b9150613a4b826139e4565b604082019050919050565b60006020820190508181036000830152613a6f81613a33565b9050919050565b7f4552433732313a207472616e736665722066726f6d20696e636f72726563742060008201527f6f776e6572000000000000000000000000000000000000000000000000000000602082015250565b6000613ad2602583612c39565b9150613add82613a76565b604082019050919050565b60006020820190508181036000830152613b0181613ac5565b9050919050565b7f4552433732313a207472616e7366657220746f20746865207a65726f2061646460008201527f7265737300000000000000000000000000000000000000000000000000000000602082015250565b6000613b64602483612c39565b9150613b6f82613b08565b604082019050919050565b60006020820190508181036000830152613b9381613b57565b9050919050565b7f4552433732313a206d696e7420746f20746865207a65726f2061646472657373600082015250565b6000613bd0602083612c39565b9150613bdb82613b9a565b602082019050919050565b60006020820190508181036000830152613bff81613bc3565b9050919050565b7f4552433732313a20746f6b656e20616c7265616479206d696e74656400000000600082015250565b6000613c3c601c83612c39565b9150613c4782613c06565b602082019050919050565b60006020820190508181036000830152613c6b81613c2f565b9050919050565b7f45524337323155524953746f726167653a2055524920736574206f66206e6f6e60008201527f6578697374656e7420746f6b656e000000000000000000000000000000000000602082015250565b6000613cce602e83612c39565b9150613cd982613c72565b604082019050919050565b60006020820190508181036000830152613cfd81613cc1565b9050919050565b60008190508160005260206000209050919050565b60006020601f8301049050919050565b600082821b905092915050565b600060088302613d667fffffffffffffffffffffffffffffffffffffffffffffffffffffffffffffffff82613d29565b613d708683613d29565b95508019841693508086168417925050509392505050565b6000819050919050565b6000613dad613da8613da384612ce0565b613d88565b612ce0565b9050919050565b6000819050919050565b613dc783613d92565b613ddb613dd382613db4565b848454613d36565b825550505050565b600090565b613df0613de3565b613dfb818484613dbe565b505050565b5b81811015613e1f57613e14600082613de8565b600181019050613e01565b5050565b601f821115613e6457613e3581613d04565b613e3e84613d19565b81016020851015613e4d578190505b613e61613e5985613d19565b830182613e00565b50505b505050565b600082821c905092915050565b6000613e8760001984600802613e69565b1980831691505092915050565b6000613ea08383613e76565b9150826002028217905092915050565b613eb982612c2e565b67ffffffffffffffff811115613ed257613ed1613037565b5b613edc8254613427565b613ee7828285613e23565b600060209050601f831160018114613f1a5760008415613f08578287015190505b613f128582613e94565b865550613f7a565b601f198416613f2886613d04565b60005b82811015613f5057848901518255600182019150602085019450602081019050613f2b565b86831015613f6d5784890151613f69601f891682613e76565b8355505b6001600288020188555050505b505050505050565b7f5072696365206d7573742062652067726561746572207468616e203000000000600082015250565b6000613fb8601c83612c39565b9150613fc382613f82565b602082019050919050565b60006020820190508181036000830152613fe781613fab565b9050919050565b60006080820190506140036000830187612d75565b6140106020830186612d75565b61401d6040830185612f83565b61402a6060830184612c04565b95945050505050565b7f4552433732313a20617070726f766520746f2063616c6c657200000000000000600082015250565b6000614069601983612c39565b915061407482614033565b602082019050919050565b600060208201905081810360008301526140988161405c565b9050919050565b7f4552433732313a207472616e7366657220746f206e6f6e20455243373231526560008201527f63656976657220696d706c656d656e7465720000000000000000000000000000602082015250565b60006140fb603283612c39565b91506141068261409f565b604082019050919050565b6000602082019050818103600083015261412a816140ee565b9050919050565b7f436f756e7465723a2064656372656d656e74206f766572666c6f770000000000600082015250565b6000614167601b83612c39565b915061417282614131565b602082019050919050565b600060208201905081810360008301526141968161415a565b9050919050565b600081519050919050565b600082825260208201905092915050565b60006141c48261419d565b6141ce81856141a8565b93506141de818560208601612c4a565b6141e781612c74565b840191505092915050565b60006080820190506142076000830187612d75565b6142146020830186612d75565b6142216040830185612f83565b818103606083015261423381846141b9565b905095945050505050565b60008151905061424d81612b9f565b92915050565b60006020828403121561426957614268612b69565b5b60006142778482850161423e565b91505092915050565b7f4e487b7100000000000000000000000000000000000000000000000000000000600052601260045260246000fdfea26469706673582212202e9f11200987831d6ea2a39f8fd816da05d1174d67bdd00901e62422713c5b2264736f6c63430008180033",
  "linkReferences": {},
  "deployedLinkReferences": {}
}